{
  "contractName": "Certificate",
  "abi": [
    {
      "inputs": [
        {
          "internalType": "string",
          "name": "_identityType",
          "type": "string"
        },
        {
          "internalType": "bytes32",
          "name": "_identityIdHash",
          "type": "bytes32"
        },
        {
          "internalType": "string",
          "name": "_vaccineManufacturer",
          "type": "string"
        },
        {
          "internalType": "uint32",
          "name": "_doseDate",
          "type": "uint32"
        },
        {
          "internalType": "uint32",
          "name": "_doseReceived",
          "type": "uint32"
        },
        {
          "internalType": "string",
          "name": "_countryIssued",
          "type": "string"
        },
        {
          "internalType": "string",
          "name": "_locationIssued",
          "type": "string"
        }
      ],
      "name": "registerCertificate",
      "outputs": [],
      "stateMutability": "nonpayable",
      "type": "function"
    },
    {
      "inputs": [
        {
          "internalType": "bytes32",
          "name": "_identityIdHash",
          "type": "bytes32"
        }
      ],
      "name": "verifyCertificate",
      "outputs": [
        {
          "internalType": "string",
          "name": "",
          "type": "string"
        },
        {
          "internalType": "bytes32",
          "name": "",
          "type": "bytes32"
        },
        {
          "internalType": "string",
          "name": "",
          "type": "string"
        },
        {
          "internalType": "uint32",
          "name": "",
          "type": "uint32"
        },
        {
          "internalType": "uint32",
          "name": "",
          "type": "uint32"
        },
        {
          "internalType": "string",
          "name": "",
          "type": "string"
        },
        {
          "internalType": "string",
          "name": "",
          "type": "string"
        }
      ],
      "stateMutability": "view",
      "type": "function",
      "constant": true
    }
  ],
  "bytecode": "0x608060405234801561001057600080fd5b50610b68806100206000396000f3fe608060405234801561001057600080fd5b50600436106100365760003560e01c8063850c17681461003b578063a3d2acc814610071575b600080fd5b6100556004803603810190610050919061069b565b61008d565b60405161006897969594939291906108bf565b60405180910390f35b61008b600480360381019061008691906106c4565b610395565b005b60606000606060008060608060008060008a81526020019081526020016000206040518060e00160405290816000820180546100c890610a63565b80601f01602080910402602001604051908101604052809291908181526020018280546100f490610a63565b80156101415780601f1061011657610100808354040283529160200191610141565b820191906000526020600020905b81548152906001019060200180831161012457829003601f168201915b505050505081526020016001820154815260200160028201805461016490610a63565b80601f016020809104026020016040519081016040528092919081815260200182805461019090610a63565b80156101dd5780601f106101b2576101008083540402835291602001916101dd565b820191906000526020600020905b8154815290600101906020018083116101c057829003601f168201915b505050505081526020016003820160009054906101000a900463ffffffff1663ffffffff1663ffffffff1681526020016003820160049054906101000a900463ffffffff1663ffffffff1663ffffffff16815260200160048201805461024290610a63565b80601f016020809104026020016040519081016040528092919081815260200182805461026e90610a63565b80156102bb5780601f10610290576101008083540402835291602001916102bb565b820191906000526020600020905b81548152906001019060200180831161029e57829003601f168201915b505050505081526020016005820180546102d490610a63565b80601f016020809104026020016040519081016040528092919081815260200182805461030090610a63565b801561034d5780601f106103225761010080835404028352916020019161034d565b820191906000526020600020905b81548152906001019060200180831161033057829003601f168201915b5050505050815250509050806000015181602001518260400151836060015184608001518560a001518660c00151975097509750975097509750975050919395979092949650565b856000801b8114156103dc576040517f08c379a00000000000000000000000000000000000000000000000000000000081526004016103d39061094a565b60405180910390fd5b6000801b6000808381526020019081526020016000206001015414610436576040517f08c379a000000000000000000000000000000000000000000000000000000000815260040161042d9061096a565b60405180910390fd5b60006040518060e001604052808a81526020018981526020018881526020018763ffffffff1681526020018663ffffffff168152602001858152602001848152509050806000808a815260200190815260200160002060008201518160000190805190602001906104a8929190610566565b506020820151816001015560408201518160020190805190602001906104cf929190610566565b5060608201518160030160006101000a81548163ffffffff021916908363ffffffff16021790555060808201518160030160046101000a81548163ffffffff021916908363ffffffff16021790555060a082015181600401908051906020019061053a929190610566565b5060c0820151816005019080519060200190610557929190610566565b50905050505050505050505050565b82805461057290610a63565b90600052602060002090601f01602090048101928261059457600085556105db565b82601f106105ad57805160ff19168380011785556105db565b828001600101855582156105db579182015b828111156105da5782518255916020019190600101906105bf565b5b5090506105e891906105ec565b5090565b5b808211156106055760008160009055506001016105ed565b5090565b600061061c610617846109bb565b61098a565b90508281526020810184848401111561063457600080fd5b61063f848285610a21565b509392505050565b60008135905061065681610b04565b92915050565b600082601f83011261066d57600080fd5b813561067d848260208601610609565b91505092915050565b60008135905061069581610b1b565b92915050565b6000602082840312156106ad57600080fd5b60006106bb84828501610647565b91505092915050565b600080600080600080600060e0888a0312156106df57600080fd5b600088013567ffffffffffffffff8111156106f957600080fd5b6107058a828b0161065c565b97505060206107168a828b01610647565b965050604088013567ffffffffffffffff81111561073357600080fd5b61073f8a828b0161065c565b95505060606107508a828b01610686565b94505060806107618a828b01610686565b93505060a088013567ffffffffffffffff81111561077e57600080fd5b61078a8a828b0161065c565b92505060c088013567ffffffffffffffff8111156107a757600080fd5b6107b38a828b0161065c565b91505092959891949750929550565b6107cb81610a07565b82525050565b60006107dc826109eb565b6107e681856109f6565b93506107f6818560208601610a30565b6107ff81610af3565b840191505092915050565b6000610817602a836109f6565b91507f43616e6e6f742061646420616e206964656e746974794964486173682077697460008301527f68206861736820307830000000000000000000000000000000000000000000006020830152604082019050919050565b600061087d601d836109f6565b91507f6964656e7469747949644861736820616c7265616479206578697374730000006000830152602082019050919050565b6108b981610a11565b82525050565b600060e08201905081810360008301526108d9818a6107d1565b90506108e860208301896107c2565b81810360408301526108fa81886107d1565b905061090960608301876108b0565b61091660808301866108b0565b81810360a083015261092881856107d1565b905081810360c083015261093c81846107d1565b905098975050505050505050565b600060208201905081810360008301526109638161080a565b9050919050565b6000602082019050818103600083015261098381610870565b9050919050565b6000604051905081810181811067ffffffffffffffff821117156109b1576109b0610ac4565b5b8060405250919050565b600067ffffffffffffffff8211156109d6576109d5610ac4565b5b601f19601f8301169050602081019050919050565b600081519050919050565b600082825260208201905092915050565b6000819050919050565b600063ffffffff82169050919050565b82818337600083830152505050565b60005b83811015610a4e578082015181840152602081019050610a33565b83811115610a5d576000848401525b50505050565b60006002820490506001821680610a7b57607f821691505b60208210811415610a8f57610a8e610a95565b5b50919050565b7f4e487b7100000000000000000000000000000000000000000000000000000000600052602260045260246000fd5b7f4e487b7100000000000000000000000000000000000000000000000000000000600052604160045260246000fd5b6000601f19601f8301169050919050565b610b0d81610a07565b8114610b1857600080fd5b50565b610b2481610a11565b8114610b2f57600080fd5b5056fea2646970667358221220e0e526c76f920c1185ba8113d484db04120fcd3671ad00a516ed028d8392ea6164736f6c63430008000033",
  "immutableReferences": {},
  "source": "pragma solidity ^0.8.0;\n\ncontract Certificate {\n\n    // 0x497a894cdaf0a1822de78c938488592f83b80c6e6f041c4768f8dd3a3d3f8edf - tx\n    // 0x68b6027e3c124421828df868c0e3c12eef6ae48a - contract\n\n    struct VaccinCert {\n        string identityType;    // It can be \"passport\" or \"national id\"\n        bytes32 identityIdHash; // The hash of the passport or national id no\n        string vaccineManufacturer; // Can be Pgizer, AstraVeneca, Moderna\n        uint32 doseDate;       // The date of the second dose as UNIX UTC\n        uint32 doseReceived;   // The number of doses that were received\n        string countryIssued;   // country\n        string locationIssued;  // city\n    }\n\n    mapping (bytes32 => VaccinCert) certificatesMapping;\n    \n    // Requires the identityIdHash not to be registered in the system\n    modifier identityIdHashDoesNotExist (bytes32 _identityIdHash) {\n        require(_identityIdHash != bytes32(0x0), \"Cannot add an identityIdHash with hash 0x0\");\n        require (certificatesMapping[_identityIdHash].identityIdHash == bytes32(0x0), \"identityIdHash already exists\");\n        _;\n    }\n\n    function registerCertificate(\n            string memory _identityType,\n            bytes32 _identityIdHash,\n            string memory _vaccineManufacturer,\n            uint32 _doseDate,\n            uint32 _doseReceived,\n            string memory _countryIssued,\n            string memory _locationIssued\n            ) public identityIdHashDoesNotExist(_identityIdHash) {\n\n        VaccinCert memory cert = VaccinCert({\n            identityType: _identityType,\n            identityIdHash: _identityIdHash,\n            vaccineManufacturer: _vaccineManufacturer,\n            doseDate: _doseDate,\n            doseReceived: _doseReceived,\n            countryIssued: _countryIssued,\n            locationIssued: _locationIssued\n        });\n\n        certificatesMapping[_identityIdHash] = cert;\n    }\n\n    function verifyCertificate(bytes32 _identityIdHash) public view \n        returns (string memory, bytes32, string memory, uint32, uint32, string memory, string memory) {\n        VaccinCert memory cert = certificatesMapping[_identityIdHash];\n\n        return (\n            cert.identityType,\n            cert.identityIdHash,\n            cert.vaccineManufacturer,\n            cert.doseDate,\n            cert.doseReceived,\n            cert.countryIssued,\n            cert.locationIssued\n        );\n    }\n}",
  "sourcePath": "C:/Users/bibuzea/metacoin/contracts/Certificate.sol",
  "compiler": {
    "name": "solc",
    "version": "0.8.0+commit.c7dfd78e.Emscripten.clang"
  },
  "schemaVersion": "3.4.1",
  "updatedAt": "2021-06-27T17:59:49.289Z",
  "networkType": "ethereum",
  "devdoc": {
    "kind": "dev",
    "methods": {},
    "version": 1
  },
  "userdoc": {
    "kind": "user",
    "methods": {},
    "version": 1
  }
}